{"contracts/test.sol":{"Test":{"abi":[{"inputs":[],"name":"_test","outputs":[],"stateMutability":"nonpayable","type":"function"}],"evm":{"bytecode":{"linkReferences":{},"object":"6080604052348015600f57600080fd5b50606d80601d6000396000f3fe6080604052348015600f57600080fd5b506004361060285760003560e01c8063a6246d0914602d575b600080fd5b60336035565b005b56fea2646970667358221220202bd212e7dbf61d17a10765eeeb4e8f2ac6dacb6cd1164ec116a578b75014d164736f6c63430008130033","opcodes":"PUSH1 0x80 PUSH1 0x40 MSTORE CALLVALUE DUP1 ISZERO PUSH1 0xF JUMPI PUSH1 0x0 DUP1 REVERT JUMPDEST POP PUSH1 0x6D DUP1 PUSH1 0x1D PUSH1 0x0 CODECOPY PUSH1 0x0 RETURN INVALID PUSH1 0x80 PUSH1 0x40 MSTORE CALLVALUE DUP1 ISZERO PUSH1 0xF JUMPI PUSH1 0x0 DUP1 REVERT JUMPDEST POP PUSH1 0x4 CALLDATASIZE LT PUSH1 0x28 JUMPI PUSH1 0x0 CALLDATALOAD PUSH1 0xE0 SHR DUP1 PUSH4 0xA6246D09 EQ PUSH1 0x2D JUMPI JUMPDEST PUSH1 0x0 DUP1 REVERT JUMPDEST PUSH1 0x33 PUSH1 0x35 JUMP JUMPDEST STOP JUMPDEST JUMP INVALID LOG2 PUSH5 0x6970667358 0x22 SLT KECCAK256 KECCAK256 0x2B 0xD2 SLT 0xE7 0xDB 0xF6 SAR OR LOG1 SMOD PUSH6 0xEEEB4E8F2AC6 0xDA 0xCB PUSH13 0xD1164EC116A578B75014D16473 PUSH16 0x6C634300081300330000000000000000 "},"methodIdentifiers":{"_test()":"a6246d09"}}}}}